:100000000C9435000C945D000C945D000C945D0024
:100010000C945D000C945D000C945D000C945D00EC
:100020000C945D000C945D000C945D000C945D00DC
:100030000C945D000C945D000C945D000C945D00CC
:100040000C9406020C945D000C94D4010C94AE0147
:100050000C945D000C945D000C945D000C945D00AC
:100060000C945D000C945D001B0311241FBECFEFA8
:10007000D8E0DEBFCDBF11E0A0E0B1E0E0EAF6E0FD
:1000800002C005900D92A637B107D9F722E0A6E786
:10009000B1E001C01D92AC31B207E1F710E0C5E359
:1000A000D0E004C02197FE010E944803C433D10769
:1000B000C9F70E9450020C944E030C940000AF92BA
:1000C000BF92CF92DF92EF92FF920F931F93CF9345
:1000D000DF936C017B018B01040F151FEB015E01A7
:1000E000AE18BF08C017D10759F06991D601ED913C
:1000F000FC910190F081E02DC6010995892B79F7DB
:10010000C501DF91CF911F910F91FF90EF90DF908C
:10011000CF90BF90AF900895FC01538D448D252F53
:1001200030E0842F90E0821B930B541710F0CF9691
:10013000089501970895FC01918D828D981761F0C3
:10014000A28DAE0FBF2FB11D5D968C91928D9F5FDA
:100150009F73928F90E008958FEF9FEF0895FC01B9
:10016000918D828D981731F0828DE80FF11D858D6C
:1001700090E008958FEF9FEF0895FC01918D228DFF
:10018000892F90E0805C9F4F821B91098F73992784
:1001900008958FE791E00E94BD0021E0892B09F4CA
:1001A00020E0822F089580E090E0892B29F00E94C2
:1001B000C90081110C9400000895FC01A48DA80FC2
:1001C000B92FB11DA35ABF4F2C91848D90E0019699
:1001D0008F739927848FA689B7892C93A089B189B9
:1001E0008C91837080648C93938D848D981306C05A
:1001F0000288F389E02D80818F7D80830895EF92BE
:10020000FF920F931F93CF93DF93EC0181E0888FD0
:100210009B8D8C8D98131AC0E889F989808185FFA0
:1002200015C09FB7F894EE89FF896083E889F98942
:1002300080818370806480839FBF81E090E0DF9144
:10024000CF911F910F91FF90EF900895F62E0B8D97
:1002500010E00F5F1F4F0F731127E02E8C8D8E1152
:100260000CC00FB607FCFACFE889F989808185FFB9
:10027000F5CFCE010E94DD00F1CFEB8DEC0FFD2F0D
:10028000F11DE35AFF4FF0829FB7F8940B8FEA8974
:10029000FB8980818062CFCFCF93DF93EC01888D83
:1002A0008823B9F0AA89BB89E889F9898C9185FDF1
:1002B00003C0808186FD0DC00FB607FCF7CF8C917F
:1002C00085FFF2CF808185FFEDCFCE010E94DD005A
:1002D000E9CFDF91CF9108953FB7F89480917B01EA
:1002E00090917C01A0917D01B0917E0126B5A89BE3
:1002F00005C02F3F19F00196A11DB11D3FBFBA2FB8
:10030000A92F982F8827BC01CD01620F711D811D77
:10031000911D42E0660F771F881F991F4A95D1F7FC
:100320000895CF93DF93FC0101900020E9F7319706
:10033000AF01481B590BBC018FE791E00E945F00A1
:10034000EC0142E050E06AE471E08FE791E00E9446
:100350005F008C0F9D1FDF91CF9108951F920F9228
:100360000FB60F9211242F933F934F935F936F9388
:100370007F938F939F93AF93BF93EF93FF938FE7F9
:1003800091E00E94DD00FF91EF91BF91AF919F91AD
:100390008F917F916F915F914F913F912F910F902E
:1003A0000FBE0F901F9018951F920F920FB60F92CD
:1003B00011242F938F939F93EF93FF93E0918F01DD
:1003C000F09190018081E0919501F091960182FD7C
:1003D0001BC09081809198018F5F8F73209199014C
:1003E000821741F0E0919801F0E0E158FE4F958FBF
:1003F00080939801FF91EF919F918F912F910F9092
:100400000FBE0F901F9018958081F4CF1F920F920E
:100410000FB60F9211242F933F938F939F93AF9317
:10042000BF938091770190917801A0917901B0916B
:100430007A013091760123E0230F2D3758F501968C
:10044000A11DB11D209376018093770190937801CF
:10045000A0937901B0937A0180917B0190917C0106
:10046000A0917D01B0917E010196A11DB11D8093E7
:100470007B0190937C01A0937D01B0937E01BF919D
:10048000AF919F918F913F912F910F900FBE0F9041
:100490001F90189526E8230F0296A11DB11DD2CFFB
:1004A000CF93DF93CDB7DEB76C970FB6F894DEBF6E
:1004B0000FBECDBF789484B5826084BD84B5816061
:1004C00084BD85B5826085BD85B5816085BD80911F
:1004D0006E00816080936E00109281008091810097
:1004E000826080938100809181008160809381008F
:1004F000809180008160809380008091B100846051
:100500008093B1008091B00081608093B0008091B1
:100510007A00846080937A0080917A008260809370
:100520007A0080917A00816080937A0080917A00CD
:10053000806880937A001092C100E0918F01F09161
:10054000900182E08083E0918B01F0918C01108218
:10055000E0918D01F0918E018FEC808310929701D4
:10056000E0919301F091940186E08083E091910104
:10057000F0919201808180618083E0919101F091FE
:100580009201808188608083E0919101F0919201D5
:10059000808180688083E0919101F0919201808157
:1005A0008F7D808300E010E08DE491E00E94910156
:1005B00085E691E00E949101A2E1B1E0FE01319651
:1005C00020E0CF013C911296320F31932F5F2C31F6
:1005D000C9F70E9491010E946C014B015C0188EBFC
:1005E000C82E8BE0D82EE12CF12C0E946C016819EA
:1005F00079098A099B09683E734081059105A8F332
:1006000021E0C21AD108E108F10888EE880E83E0E3
:10061000981EA11CB11CC114D104E104F10429F7F6
:100620000115110509F20E94C900882309F4BCCF05
:100630000E940000B9CFEFE7F1E01382128288EE4A
:1006400093E0A0E0B0E084839583A683B78384E041
:1006500091E09183808385EC90E09587848784EC9A
:1006600090E09787868780EC90E0918B808B81EC7F
:1006700090E0938B828B82EC90E0958B848B86EC60
:1006800090E0978B868B118E128E138E148E0895A8
:10069000EE0FFF1F0590F491E02D0994F894FFCF21
:1006A00000000000FF005F008C004C01BD009B00BB
:1006B000AF006D006E0063006000700061007500A7
:1006C0003B00590059006F00540035006900440098
:1006D0005000400061001E0054005E004C005700B6
:1006E0000A0065000000000000000D0A0057656C5C
:1006F000636F6D6520746F2041726475696E6F2041
:10070000554E4F7E005468697320796F757220666C
:060710006C61673A000075
:00000001FF
